{
  "_format": "hh-sol-artifact-1",
  "contractName": "TokenVesting",
  "sourceName": "contracts/TokenVesting.sol",
  "abi": [
    {
      "anonymous": false,
      "inputs": [
        {
          "indexed": true,
          "internalType": "address",
          "name": "token",
          "type": "address"
        }
      ],
      "name": "Initialized",
      "type": "event"
    },
    {
      "anonymous": false,
      "inputs": [
        {
          "indexed": true,
          "internalType": "address",
          "name": "previousOwner",
          "type": "address"
        },
        {
          "indexed": true,
          "internalType": "address",
          "name": "newOwner",
          "type": "address"
        }
      ],
      "name": "OwnershipTransferred",
      "type": "event"
    },
    {
      "anonymous": false,
      "inputs": [
        {
          "indexed": true,
          "internalType": "address",
          "name": "beneficiary",
          "type": "address"
        },
        {
          "indexed": false,
          "internalType": "uint256",
          "name": "amount",
          "type": "uint256"
        }
      ],
      "name": "Released",
      "type": "event"
    },
    {
      "anonymous": false,
      "inputs": [
        {
          "indexed": true,
          "internalType": "address",
          "name": "beneficiary",
          "type": "address"
        },
        {
          "indexed": false,
          "internalType": "uint256",
          "name": "amount",
          "type": "uint256"
        }
      ],
      "name": "VestingCreated",
      "type": "event"
    },
    {
      "inputs": [],
      "name": "_token",
      "outputs": [
        {
          "internalType": "contract IERC20",
          "name": "",
          "type": "address"
        }
      ],
      "stateMutability": "view",
      "type": "function"
    },
    {
      "inputs": [
        {
          "internalType": "address",
          "name": "_beneficiary",
          "type": "address"
        },
        {
          "internalType": "uint256",
          "name": "_start",
          "type": "uint256"
        },
        {
          "internalType": "uint256",
          "name": "_cliff",
          "type": "uint256"
        },
        {
          "internalType": "uint256",
          "name": "_duration",
          "type": "uint256"
        },
        {
          "internalType": "uint256",
          "name": "_slicePeriodSeconds",
          "type": "uint256"
        },
        {
          "internalType": "uint256",
          "name": "_totalAllocation",
          "type": "uint256"
        }
      ],
      "name": "createVestingSchedule",
      "outputs": [],
      "stateMutability": "nonpayable",
      "type": "function"
    },
    {
      "inputs": [],
      "name": "getAvailableVestingAmount",
      "outputs": [
        {
          "internalType": "uint256",
          "name": "",
          "type": "uint256"
        }
      ],
      "stateMutability": "view",
      "type": "function"
    },
    {
      "inputs": [],
      "name": "getCurrentTime",
      "outputs": [
        {
          "internalType": "uint256",
          "name": "",
          "type": "uint256"
        }
      ],
      "stateMutability": "view",
      "type": "function"
    },
    {
      "inputs": [],
      "name": "getToken",
      "outputs": [
        {
          "internalType": "address",
          "name": "",
          "type": "address"
        }
      ],
      "stateMutability": "view",
      "type": "function"
    },
    {
      "inputs": [
        {
          "internalType": "address",
          "name": "_beneficiary",
          "type": "address"
        }
      ],
      "name": "getVestingSchedule",
      "outputs": [
        {
          "components": [
            {
              "internalType": "address",
              "name": "beneficiary",
              "type": "address"
            },
            {
              "internalType": "uint256",
              "name": "start",
              "type": "uint256"
            },
            {
              "internalType": "uint256",
              "name": "cliff",
              "type": "uint256"
            },
            {
              "internalType": "uint256",
              "name": "duration",
              "type": "uint256"
            },
            {
              "internalType": "uint256",
              "name": "slicePeriodSeconds",
              "type": "uint256"
            },
            {
              "internalType": "uint256",
              "name": "amountTotal",
              "type": "uint256"
            },
            {
              "internalType": "uint256",
              "name": "released",
              "type": "uint256"
            }
          ],
          "internalType": "struct TokenVesting.VestingSchedule",
          "name": "",
          "type": "tuple"
        }
      ],
      "stateMutability": "view",
      "type": "function"
    },
    {
      "inputs": [],
      "name": "getVestingSchedulesTotalAmount",
      "outputs": [
        {
          "internalType": "uint256",
          "name": "",
          "type": "uint256"
        }
      ],
      "stateMutability": "view",
      "type": "function"
    },
    {
      "inputs": [],
      "name": "getWithdrawableAmount",
      "outputs": [
        {
          "internalType": "uint256",
          "name": "",
          "type": "uint256"
        }
      ],
      "stateMutability": "view",
      "type": "function"
    },
    {
      "inputs": [
        {
          "internalType": "address",
          "name": "token_",
          "type": "address"
        }
      ],
      "name": "initialize",
      "outputs": [],
      "stateMutability": "nonpayable",
      "type": "function"
    },
    {
      "inputs": [
        {
          "internalType": "address",
          "name": "addr",
          "type": "address"
        }
      ],
      "name": "isBeneficiary",
      "outputs": [
        {
          "internalType": "bool",
          "name": "",
          "type": "bool"
        }
      ],
      "stateMutability": "view",
      "type": "function"
    },
    {
      "inputs": [],
      "name": "isInitialized",
      "outputs": [
        {
          "internalType": "bool",
          "name": "",
          "type": "bool"
        }
      ],
      "stateMutability": "view",
      "type": "function"
    },
    {
      "inputs": [],
      "name": "owner",
      "outputs": [
        {
          "internalType": "address",
          "name": "",
          "type": "address"
        }
      ],
      "stateMutability": "view",
      "type": "function"
    },
    {
      "inputs": [],
      "name": "release",
      "outputs": [],
      "stateMutability": "nonpayable",
      "type": "function"
    },
    {
      "inputs": [],
      "name": "renounceOwnership",
      "outputs": [],
      "stateMutability": "nonpayable",
      "type": "function"
    },
    {
      "inputs": [
        {
          "internalType": "address",
          "name": "newOwner",
          "type": "address"
        }
      ],
      "name": "transferOwnership",
      "outputs": [],
      "stateMutability": "nonpayable",
      "type": "function"
    },
    {
      "inputs": [
        {
          "internalType": "contract IERC20",
          "name": "tokenContract",
          "type": "address"
        }
      ],
      "name": "withdrawAllTokens",
      "outputs": [],
      "stateMutability": "nonpayable",
      "type": "function"
    }
  ],
  "bytecode": "0x608060405234801561001057600080fd5b5060006100216100cb60201b60201c565b9050806000806101000a81548173ffffffffffffffffffffffffffffffffffffffff021916908373ffffffffffffffffffffffffffffffffffffffff1602179055508073ffffffffffffffffffffffffffffffffffffffff16600073ffffffffffffffffffffffffffffffffffffffff167f8be0079c531659141344cd1fd0a4f28419497f9722a3daafe3b4186f6b6457e060405160405180910390a350600180819055506100d3565b600033905090565b612a74806100e26000396000f3fe608060405234801561001057600080fd5b50600436106101005760003560e01c806390be10cc11610097578063a878aee611610066578063a878aee614610267578063c4d66de814610283578063ecd0c0c31461029f578063f2fde38b146102bd57610100565b806390be10cc146101cb5780639a261d22146101e95780639d19b226146102075780639f8290631461023757610100565b806362eb0604116100d357806362eb06041461017d578063715018a61461019957806386d1a69f146101a35780638da5cb5b146101ad57610100565b806321df0da71461010557806329cb924d14610123578063392e53cd1461014157806348deb4711461015f575b600080fd5b61010d6102d9565b60405161011a9190611a84565b60405180910390f35b61012b610303565b6040516101389190611ab8565b60405180910390f35b61014961030b565b6040516101569190611aee565b60405180910390f35b61016761031e565b6040516101749190611ab8565b60405180910390f35b61019760048036038101906101929190611b66565b610328565b005b6101a161089b565b005b6101ab6109d5565b005b6101b5610c96565b6040516101c29190611a84565b60405180910390f35b6101d3610cbf565b6040516101e09190611ab8565b60405180910390f35b6101f1610d6f565b6040516101fe9190611ab8565b60405180910390f35b610221600480360381019061021c9190611bf3565b610ea8565b60405161022e9190611aee565b60405180910390f35b610251600480360381019061024c9190611bf3565b610f56565b60405161025e9190611ccc565b60405180910390f35b610281600480360381019061027c9190611d25565b611041565b005b61029d60048036038101906102989190611bf3565b611270565b005b6102a761144d565b6040516102b49190611db1565b60405180910390f35b6102d760048036038101906102d29190611bf3565b611473565b005b6000600260009054906101000a900473ffffffffffffffffffffffffffffffffffffffff16905090565b600042905090565b600260149054906101000a900460ff1681565b6000600454905090565b61033061161b565b73ffffffffffffffffffffffffffffffffffffffff1661034e610c96565b73ffffffffffffffffffffffffffffffffffffffff16146103a4576040517f08c379a000000000000000000000000000000000000000000000000000000000815260040161039b90611e29565b60405180910390fd5b600260149054906101000a900460ff166103f3576040517f08c379a00000000000000000000000000000000000000000000000000000000081526004016103ea90611e95565b60405180910390fd5b600073ffffffffffffffffffffffffffffffffffffffff168673ffffffffffffffffffffffffffffffffffffffff1603610462576040517f08c379a000000000000000000000000000000000000000000000000000000000815260040161045990611f01565b60405180910390fd5b803073ffffffffffffffffffffffffffffffffffffffff166390be10cc6040518163ffffffff1660e01b8152600401602060405180830381865afa1580156104ae573d6000803e3d6000fd5b505050506040513d601f19601f820116820180604052508101906104d29190611f36565b1015610513576040517f08c379a000000000000000000000000000000000000000000000000000000000815260040161050a90611ffb565b60405180910390fd5b60008311610556576040517f08c379a000000000000000000000000000000000000000000000000000000000815260040161054d9061208d565b60405180910390fd5b60008111610599576040517f08c379a0000000000000000000000000000000000000000000000000000000008152600401610590906120f9565b60405180910390fd5b60018210156105dd576040517f08c379a00000000000000000000000000000000000000000000000000000000081526004016105d49061218b565b60405180910390fd5b600073ffffffffffffffffffffffffffffffffffffffff16600560008873ffffffffffffffffffffffffffffffffffffffff1673ffffffffffffffffffffffffffffffffffffffff16815260200190815260200160002060000160009054906101000a900473ffffffffffffffffffffffffffffffffffffffff1673ffffffffffffffffffffffffffffffffffffffff16146106ae576040517f08c379a00000000000000000000000000000000000000000000000000000000081526004016106a59061221d565b60405180910390fd5b600084866106bc919061226c565b90506040518060e001604052808873ffffffffffffffffffffffffffffffffffffffff1681526020018781526020018281526020018581526020018481526020018381526020016000815250600560008973ffffffffffffffffffffffffffffffffffffffff1673ffffffffffffffffffffffffffffffffffffffff16815260200190815260200160002060008201518160000160006101000a81548173ffffffffffffffffffffffffffffffffffffffff021916908373ffffffffffffffffffffffffffffffffffffffff1602179055506020820151816001015560408201518160020155606082015181600301556080820151816004015560a0820151816005015560c08201518160060155905050816004546107db919061226c565b6004819055506003879080600181540180825580915050600190039060005260206000200160009091909190916101000a81548173ffffffffffffffffffffffffffffffffffffffff021916908373ffffffffffffffffffffffffffffffffffffffff1602179055508673ffffffffffffffffffffffffffffffffffffffff167f2f5488c5b0350655053f3d00e1693b26a49ecd0242b2c0df881ccda054490d308360405161088a9190611ab8565b60405180910390a250505050505050565b6108a361161b565b73ffffffffffffffffffffffffffffffffffffffff166108c1610c96565b73ffffffffffffffffffffffffffffffffffffffff1614610917576040517f08c379a000000000000000000000000000000000000000000000000000000000815260040161090e90611e29565b60405180910390fd5b600073ffffffffffffffffffffffffffffffffffffffff1660008054906101000a900473ffffffffffffffffffffffffffffffffffffffff1673ffffffffffffffffffffffffffffffffffffffff167f8be0079c531659141344cd1fd0a4f28419497f9722a3daafe3b4186f6b6457e060405160405180910390a360008060006101000a81548173ffffffffffffffffffffffffffffffffffffffff021916908373ffffffffffffffffffffffffffffffffffffffff160217905550565b600260015403610a1a576040517f08c379a0000000000000000000000000000000000000000000000000000000008152600401610a11906122ec565b60405180910390fd5b6002600181905550610a2b33610ea8565b610a6a576040517f08c379a0000000000000000000000000000000000000000000000000000000008152600401610a6190612358565b60405180910390fd5b6000600560003373ffffffffffffffffffffffffffffffffffffffff1673ffffffffffffffffffffffffffffffffffffffff16815260200190815260200160002090506000610b55826040518060e00160405290816000820160009054906101000a900473ffffffffffffffffffffffffffffffffffffffff1673ffffffffffffffffffffffffffffffffffffffff1673ffffffffffffffffffffffffffffffffffffffff1681526020016001820154815260200160028201548152602001600382015481526020016004820154815260200160058201548152602001600682015481525050611623565b905060008111610b9a576040517f08c379a0000000000000000000000000000000000000000000000000000000008152600401610b91906123c4565b60405180910390fd5b808260060154610baa919061226c565b826006018190555060008260000160009054906101000a900473ffffffffffffffffffffffffffffffffffffffff16905081600454610be991906123e4565b600481905550610c3c8183600260009054906101000a900473ffffffffffffffffffffffffffffffffffffffff1673ffffffffffffffffffffffffffffffffffffffff166116fd9092919063ffffffff16565b3373ffffffffffffffffffffffffffffffffffffffff167fb21fb52d5749b80f3182f8c6992236b5e5576681880914484d7f4c9b062e619e83604051610c829190611ab8565b60405180910390a250505060018081905550565b60008060009054906101000a900473ffffffffffffffffffffffffffffffffffffffff16905090565b6000600454600260009054906101000a900473ffffffffffffffffffffffffffffffffffffffff1673ffffffffffffffffffffffffffffffffffffffff166370a08231306040518263ffffffff1660e01b8152600401610d1f9190611a84565b602060405180830381865afa158015610d3c573d6000803e3d6000fd5b505050506040513d601f19601f82011682018060405250810190610d609190611f36565b610d6a91906123e4565b905090565b6000610d7a33610ea8565b610db9576040517f08c379a0000000000000000000000000000000000000000000000000000000008152600401610db090612358565b60405180910390fd5b6000600560003373ffffffffffffffffffffffffffffffffffffffff1673ffffffffffffffffffffffffffffffffffffffff1681526020019081526020016000209050610ea2816040518060e00160405290816000820160009054906101000a900473ffffffffffffffffffffffffffffffffffffffff1673ffffffffffffffffffffffffffffffffffffffff1673ffffffffffffffffffffffffffffffffffffffff1681526020016001820154815260200160028201548152602001600382015481526020016004820154815260200160058201548152602001600682015481525050611623565b91505090565b600080600090505b600380549050811015610f4b578273ffffffffffffffffffffffffffffffffffffffff1660038281548110610ee857610ee7612418565b5b9060005260206000200160009054906101000a900473ffffffffffffffffffffffffffffffffffffffff1673ffffffffffffffffffffffffffffffffffffffff1603610f38576001915050610f51565b8080610f4390612447565b915050610eb0565b50600090505b919050565b610f5e6119f0565b600560008373ffffffffffffffffffffffffffffffffffffffff1673ffffffffffffffffffffffffffffffffffffffff1681526020019081526020016000206040518060e00160405290816000820160009054906101000a900473ffffffffffffffffffffffffffffffffffffffff1673ffffffffffffffffffffffffffffffffffffffff1673ffffffffffffffffffffffffffffffffffffffff16815260200160018201548152602001600282015481526020016003820154815260200160048201548152602001600582015481526020016006820154815250509050919050565b61104961161b565b73ffffffffffffffffffffffffffffffffffffffff16611067610c96565b73ffffffffffffffffffffffffffffffffffffffff16146110bd576040517f08c379a00000000000000000000000000000000000000000000000000000000081526004016110b490611e29565b60405180910390fd5b600260015403611102576040517f08c379a00000000000000000000000000000000000000000000000000000000081526004016110f9906122ec565b60405180910390fd5b6002600181905550600073ffffffffffffffffffffffffffffffffffffffff168173ffffffffffffffffffffffffffffffffffffffff1603611179576040517f08c379a0000000000000000000000000000000000000000000000000000000008152600401611170906124db565b60405180910390fd5b60008173ffffffffffffffffffffffffffffffffffffffff166370a08231306040518263ffffffff1660e01b81526004016111b49190611a84565b602060405180830381865afa1580156111d1573d6000803e3d6000fd5b505050506040513d601f19601f820116820180604052508101906111f59190611f36565b90506000811161123a576040517f08c379a00000000000000000000000000000000000000000000000000000000081526004016112319061256d565b60405180910390fd5b61126533828473ffffffffffffffffffffffffffffffffffffffff166116fd9092919063ffffffff16565b506001808190555050565b61127861161b565b73ffffffffffffffffffffffffffffffffffffffff16611296610c96565b73ffffffffffffffffffffffffffffffffffffffff16146112ec576040517f08c379a00000000000000000000000000000000000000000000000000000000081526004016112e390611e29565b60405180910390fd5b600073ffffffffffffffffffffffffffffffffffffffff168173ffffffffffffffffffffffffffffffffffffffff160361135b576040517f08c379a000000000000000000000000000000000000000000000000000000000815260040161135290611f01565b60405180910390fd5b600260149054906101000a900460ff16156113ab576040517f08c379a00000000000000000000000000000000000000000000000000000000081526004016113a2906125d9565b60405180910390fd5b80600260006101000a81548173ffffffffffffffffffffffffffffffffffffffff021916908373ffffffffffffffffffffffffffffffffffffffff1602179055506001600260146101000a81548160ff0219169083151502179055508073ffffffffffffffffffffffffffffffffffffffff167f908408e307fc569b417f6cbec5d5a06f44a0a505ac0479b47d421a4b2fd6a1e660405160405180910390a250565b600260009054906101000a900473ffffffffffffffffffffffffffffffffffffffff1681565b61147b61161b565b73ffffffffffffffffffffffffffffffffffffffff16611499610c96565b73ffffffffffffffffffffffffffffffffffffffff16146114ef576040517f08c379a00000000000000000000000000000000000000000000000000000000081526004016114e690611e29565b60405180910390fd5b600073ffffffffffffffffffffffffffffffffffffffff168173ffffffffffffffffffffffffffffffffffffffff160361155e576040517f08c379a00000000000000000000000000000000000000000000000000000000081526004016115559061266b565b60405180910390fd5b8073ffffffffffffffffffffffffffffffffffffffff1660008054906101000a900473ffffffffffffffffffffffffffffffffffffffff1673ffffffffffffffffffffffffffffffffffffffff167f8be0079c531659141344cd1fd0a4f28419497f9722a3daafe3b4186f6b6457e060405160405180910390a3806000806101000a81548173ffffffffffffffffffffffffffffffffffffffff021916908373ffffffffffffffffffffffffffffffffffffffff16021790555050565b600033905090565b60008061162e610303565b905082604001518110156116465760009150506116f8565b8260600151836040015161165a919061226c565b811061167c578260c001518360a0015161167491906123e4565b9150506116f8565b600083604001518261168e91906123e4565b9050600084608001519050600081836116a791906126ba565b9050600082826116b791906126eb565b905060008760600151828960a001516116d091906126eb565b6116da91906126ba565b90508760c00151816116ec91906123e4565b90508096505050505050505b919050565b61177e8363a9059cbb60e01b848460405160240161171c92919061272d565b604051602081830303815290604052907bffffffffffffffffffffffffffffffffffffffffffffffffffffffff19166020820180517bffffffffffffffffffffffffffffffffffffffffffffffffffffffff8381831617835250505050611783565b505050565b60006117e5826040518060400160405280602081526020017f5361666545524332303a206c6f772d6c6576656c2063616c6c206661696c65648152508573ffffffffffffffffffffffffffffffffffffffff1661184a9092919063ffffffff16565b905060008151111561184557808060200190518101906118059190612782565b611844576040517f08c379a000000000000000000000000000000000000000000000000000000000815260040161183b90612821565b60405180910390fd5b5b505050565b60606118598484600085611862565b90509392505050565b6060824710156118a7576040517f08c379a000000000000000000000000000000000000000000000000000000000815260040161189e906128b3565b60405180910390fd5b6118b085611976565b6118ef576040517f08c379a00000000000000000000000000000000000000000000000000000000081526004016118e69061291f565b60405180910390fd5b6000808673ffffffffffffffffffffffffffffffffffffffff16858760405161191891906129b0565b60006040518083038185875af1925050503d8060008114611955576040519150601f19603f3d011682016040523d82523d6000602084013e61195a565b606091505b509150915061196a828286611989565b92505050949350505050565b600080823b905060008111915050919050565b60608315611999578290506119e9565b6000835111156119ac5782518084602001fd5b816040517f08c379a00000000000000000000000000000000000000000000000000000000081526004016119e09190612a1c565b60405180910390fd5b9392505050565b6040518060e00160405280600073ffffffffffffffffffffffffffffffffffffffff1681526020016000815260200160008152602001600081526020016000815260200160008152602001600081525090565b600073ffffffffffffffffffffffffffffffffffffffff82169050919050565b6000611a6e82611a43565b9050919050565b611a7e81611a63565b82525050565b6000602082019050611a996000830184611a75565b92915050565b6000819050919050565b611ab281611a9f565b82525050565b6000602082019050611acd6000830184611aa9565b92915050565b60008115159050919050565b611ae881611ad3565b82525050565b6000602082019050611b036000830184611adf565b92915050565b600080fd5b611b1781611a63565b8114611b2257600080fd5b50565b600081359050611b3481611b0e565b92915050565b611b4381611a9f565b8114611b4e57600080fd5b50565b600081359050611b6081611b3a565b92915050565b60008060008060008060c08789031215611b8357611b82611b09565b5b6000611b9189828a01611b25565b9650506020611ba289828a01611b51565b9550506040611bb389828a01611b51565b9450506060611bc489828a01611b51565b9350506080611bd589828a01611b51565b92505060a0611be689828a01611b51565b9150509295509295509295565b600060208284031215611c0957611c08611b09565b5b6000611c1784828501611b25565b91505092915050565b611c2981611a63565b82525050565b611c3881611a9f565b82525050565b60e082016000820151611c546000850182611c20565b506020820151611c676020850182611c2f565b506040820151611c7a6040850182611c2f565b506060820151611c8d6060850182611c2f565b506080820151611ca06080850182611c2f565b5060a0820151611cb360a0850182611c2f565b5060c0820151611cc660c0850182611c2f565b50505050565b600060e082019050611ce16000830184611c3e565b92915050565b6000611cf282611a63565b9050919050565b611d0281611ce7565b8114611d0d57600080fd5b50565b600081359050611d1f81611cf9565b92915050565b600060208284031215611d3b57611d3a611b09565b5b6000611d4984828501611d10565b91505092915050565b6000819050919050565b6000611d77611d72611d6d84611a43565b611d52565b611a43565b9050919050565b6000611d8982611d5c565b9050919050565b6000611d9b82611d7e565b9050919050565b611dab81611d90565b82525050565b6000602082019050611dc66000830184611da2565b92915050565b600082825260208201905092915050565b7f4f776e61626c653a2063616c6c6572206973206e6f7420746865206f776e6572600082015250565b6000611e13602083611dcc565b9150611e1e82611ddd565b602082019050919050565b60006020820190508181036000830152611e4281611e06565b9050919050565b7f6e6f7420696e697469616c697a65640000000000000000000000000000000000600082015250565b6000611e7f600f83611dcc565b9150611e8a82611e49565b602082019050919050565b60006020820190508181036000830152611eae81611e72565b9050919050565b7f616464726573732063616e2774206265207a65726f0000000000000000000000600082015250565b6000611eeb601583611dcc565b9150611ef682611eb5565b602082019050919050565b60006020820190508181036000830152611f1a81611ede565b9050919050565b600081519050611f3081611b3a565b92915050565b600060208284031215611f4c57611f4b611b09565b5b6000611f5a84828501611f21565b91505092915050565b7f546f6b656e56657374696e673a2063616e6e6f7420637265617465207665737460008201527f696e67207363686564756c652062656361757365206e6f74207375666669636960208201527f656e7420746f6b656e7300000000000000000000000000000000000000000000604082015250565b6000611fe5604a83611dcc565b9150611ff082611f63565b606082019050919050565b6000602082019050818103600083015261201481611fd8565b9050919050565b7f546f6b656e56657374696e673a206475726174696f6e206d757374206265203e60008201527f2030000000000000000000000000000000000000000000000000000000000000602082015250565b6000612077602283611dcc565b91506120828261201b565b604082019050919050565b600060208201905081810360008301526120a68161206a565b9050919050565b7f546f6b656e56657374696e673a20616d6f756e74206d757374206265203e2030600082015250565b60006120e3602083611dcc565b91506120ee826120ad565b602082019050919050565b60006020820190508181036000830152612112816120d6565b9050919050565b7f546f6b656e56657374696e673a20736c696365506572696f645365636f6e647360008201527f206d757374206265203e3d203100000000000000000000000000000000000000602082015250565b6000612175602d83611dcc565b915061218082612119565b604082019050919050565b600060208201905081810360008301526121a481612168565b9050919050565b7f412076657374696e67207363686564756c6520616c726561647920657869737460008201527f7320666f72207468697320616464726573730000000000000000000000000000602082015250565b6000612207603283611dcc565b9150612212826121ab565b604082019050919050565b60006020820190508181036000830152612236816121fa565b9050919050565b7f4e487b7100000000000000000000000000000000000000000000000000000000600052601160045260246000fd5b600061227782611a9f565b915061228283611a9f565b925082820190508082111561229a5761229961223d565b5b92915050565b7f5265656e7472616e637947756172643a207265656e7472616e742063616c6c00600082015250565b60006122d6601f83611dcc565b91506122e1826122a0565b602082019050919050565b60006020820190508181036000830152612305816122c9565b9050919050565b7f4e6f742042656e65666963696172790000000000000000000000000000000000600082015250565b6000612342600f83611dcc565b915061234d8261230c565b602082019050919050565b6000602082019050818103600083015261237181612335565b9050919050565b7f417661696c61626c652076657374656420616d6f756e74206973203000000000600082015250565b60006123ae601c83611dcc565b91506123b982612378565b602082019050919050565b600060208201905081810360008301526123dd816123a1565b9050919050565b60006123ef82611a9f565b91506123fa83611a9f565b92508282039050818111156124125761241161223d565b5b92915050565b7f4e487b7100000000000000000000000000000000000000000000000000000000600052603260045260246000fd5b600061245282611a9f565b91507fffffffffffffffffffffffffffffffffffffffffffffffffffffffffffffffff82036124845761248361223d565b5b600182019050919050565b7f546f6b656e20616464726573732063616e6e6f74206265207a65726f00000000600082015250565b60006124c5601c83611dcc565b91506124d08261248f565b602082019050919050565b600060208201905081810360008301526124f4816124b8565b9050919050565b7f436f6e747261637420686173206e6f2062616c616e6365206f6620746869732060008201527f746f6b656e000000000000000000000000000000000000000000000000000000602082015250565b6000612557602583611dcc565b9150612562826124fb565b604082019050919050565b600060208201905081810360008301526125868161254a565b9050919050565b7f616c726561647920696e697469616c697a656400000000000000000000000000600082015250565b60006125c3601383611dcc565b91506125ce8261258d565b602082019050919050565b600060208201905081810360008301526125f2816125b6565b9050919050565b7f4f776e61626c653a206e6577206f776e657220697320746865207a65726f206160008201527f6464726573730000000000000000000000000000000000000000000000000000602082015250565b6000612655602683611dcc565b9150612660826125f9565b604082019050919050565b6000602082019050818103600083015261268481612648565b9050919050565b7f4e487b7100000000000000000000000000000000000000000000000000000000600052601260045260246000fd5b60006126c582611a9f565b91506126d083611a9f565b9250826126e0576126df61268b565b5b828204905092915050565b60006126f682611a9f565b915061270183611a9f565b925082820261270f81611a9f565b915082820484148315176127265761272561223d565b5b5092915050565b60006040820190506127426000830185611a75565b61274f6020830184611aa9565b9392505050565b61275f81611ad3565b811461276a57600080fd5b50565b60008151905061277c81612756565b92915050565b60006020828403121561279857612797611b09565b5b60006127a68482850161276d565b91505092915050565b7f5361666545524332303a204552433230206f7065726174696f6e20646964206e60008201527f6f74207375636365656400000000000000000000000000000000000000000000602082015250565b600061280b602a83611dcc565b9150612816826127af565b604082019050919050565b6000602082019050818103600083015261283a816127fe565b9050919050565b7f416464726573733a20696e73756666696369656e742062616c616e636520666f60008201527f722063616c6c0000000000000000000000000000000000000000000000000000602082015250565b600061289d602683611dcc565b91506128a882612841565b604082019050919050565b600060208201905081810360008301526128cc81612890565b9050919050565b7f416464726573733a2063616c6c20746f206e6f6e2d636f6e7472616374000000600082015250565b6000612909601d83611dcc565b9150612914826128d3565b602082019050919050565b60006020820190508181036000830152612938816128fc565b9050919050565b600081519050919050565b600081905092915050565b60005b83811015612973578082015181840152602081019050612958565b60008484015250505050565b600061298a8261293f565b612994818561294a565b93506129a4818560208601612955565b80840191505092915050565b60006129bc828461297f565b915081905092915050565b600081519050919050565b6000601f19601f8301169050919050565b60006129ee826129c7565b6129f88185611dcc565b9350612a08818560208601612955565b612a11816129d2565b840191505092915050565b60006020820190508181036000830152612a3681846129e3565b90509291505056fea2646970667358221220ad50f1a2c22910916bdab9e854ebca3286d914f134667f8414b70d2d415b1cf664736f6c63430008130033",
  "linkReferences": {},
  "deployedLinkReferences": {}
}