{
  "_format": "hh-sol-artifact-1",
  "contractName": "TokenVesting",
  "sourceName": "contracts/TokenVesting.sol",
  "abi": [
    {
      "inputs": [
        {
          "internalType": "address[]",
          "name": "_beneficiaries",
          "type": "address[]"
        },
        {
          "internalType": "uint256",
          "name": "_start",
          "type": "uint256"
        },
        {
          "internalType": "uint256",
          "name": "_cliff",
          "type": "uint256"
        },
        {
          "internalType": "uint256",
          "name": "_duration",
          "type": "uint256"
        },
        {
          "internalType": "uint256",
          "name": "_slicePeriodSeconds",
          "type": "uint256"
        },
        {
          "internalType": "uint256",
          "name": "_totalAllocation",
          "type": "uint256"
        }
      ],
      "name": "createVestingSchedule",
      "outputs": [],
      "stateMutability": "nonpayable",
      "type": "function"
    },
    {
      "inputs": [
        {
          "internalType": "address",
          "name": "token_",
          "type": "address"
        }
      ],
      "name": "initialize",
      "outputs": [],
      "stateMutability": "nonpayable",
      "type": "function"
    },
    {
      "anonymous": false,
      "inputs": [
        {
          "indexed": true,
          "internalType": "address",
          "name": "token",
          "type": "address"
        }
      ],
      "name": "Initialized",
      "type": "event"
    },
    {
      "anonymous": false,
      "inputs": [
        {
          "indexed": true,
          "internalType": "address",
          "name": "previousOwner",
          "type": "address"
        },
        {
          "indexed": true,
          "internalType": "address",
          "name": "newOwner",
          "type": "address"
        }
      ],
      "name": "OwnershipTransferred",
      "type": "event"
    },
    {
      "inputs": [],
      "name": "pause",
      "outputs": [],
      "stateMutability": "nonpayable",
      "type": "function"
    },
    {
      "anonymous": false,
      "inputs": [
        {
          "indexed": false,
          "internalType": "address",
          "name": "account",
          "type": "address"
        }
      ],
      "name": "Paused",
      "type": "event"
    },
    {
      "inputs": [],
      "name": "release",
      "outputs": [],
      "stateMutability": "nonpayable",
      "type": "function"
    },
    {
      "anonymous": false,
      "inputs": [
        {
          "indexed": true,
          "internalType": "address",
          "name": "beneficiary",
          "type": "address"
        },
        {
          "indexed": false,
          "internalType": "uint256",
          "name": "amount",
          "type": "uint256"
        }
      ],
      "name": "Released",
      "type": "event"
    },
    {
      "inputs": [],
      "name": "renounceOwnership",
      "outputs": [],
      "stateMutability": "nonpayable",
      "type": "function"
    },
    {
      "inputs": [
        {
          "internalType": "address",
          "name": "newOwner",
          "type": "address"
        }
      ],
      "name": "transferOwnership",
      "outputs": [],
      "stateMutability": "nonpayable",
      "type": "function"
    },
    {
      "inputs": [],
      "name": "unpause",
      "outputs": [],
      "stateMutability": "nonpayable",
      "type": "function"
    },
    {
      "anonymous": false,
      "inputs": [
        {
          "indexed": false,
          "internalType": "address",
          "name": "account",
          "type": "address"
        }
      ],
      "name": "Unpaused",
      "type": "event"
    },
    {
      "anonymous": false,
      "inputs": [
        {
          "indexed": true,
          "internalType": "address",
          "name": "beneficiary",
          "type": "address"
        },
        {
          "indexed": false,
          "internalType": "uint256",
          "name": "amount",
          "type": "uint256"
        }
      ],
      "name": "VestingCreated",
      "type": "event"
    },
    {
      "inputs": [
        {
          "internalType": "contract IERC20",
          "name": "tokenContract",
          "type": "address"
        }
      ],
      "name": "withdrawAllTokens",
      "outputs": [],
      "stateMutability": "nonpayable",
      "type": "function"
    },
    {
      "inputs": [],
      "name": "_token",
      "outputs": [
        {
          "internalType": "contract IERC20",
          "name": "",
          "type": "address"
        }
      ],
      "stateMutability": "view",
      "type": "function"
    },
    {
      "inputs": [
        {
          "internalType": "address",
          "name": "_beneficiary",
          "type": "address"
        }
      ],
      "name": "getAvailableVestingAmount",
      "outputs": [
        {
          "internalType": "uint256",
          "name": "",
          "type": "uint256"
        }
      ],
      "stateMutability": "view",
      "type": "function"
    },
    {
      "inputs": [],
      "name": "getCurrentTime",
      "outputs": [
        {
          "internalType": "uint256",
          "name": "",
          "type": "uint256"
        }
      ],
      "stateMutability": "view",
      "type": "function"
    },
    {
      "inputs": [],
      "name": "getToken",
      "outputs": [
        {
          "internalType": "address",
          "name": "",
          "type": "address"
        }
      ],
      "stateMutability": "view",
      "type": "function"
    },
    {
      "inputs": [
        {
          "internalType": "address",
          "name": "_beneficiary",
          "type": "address"
        }
      ],
      "name": "getVestingSchedule",
      "outputs": [
        {
          "components": [
            {
              "internalType": "address",
              "name": "beneficiary",
              "type": "address"
            },
            {
              "internalType": "uint256",
              "name": "start",
              "type": "uint256"
            },
            {
              "internalType": "uint256",
              "name": "cliff",
              "type": "uint256"
            },
            {
              "internalType": "uint256",
              "name": "duration",
              "type": "uint256"
            },
            {
              "internalType": "uint256",
              "name": "slicePeriodSeconds",
              "type": "uint256"
            },
            {
              "internalType": "uint256",
              "name": "amountTotal",
              "type": "uint256"
            },
            {
              "internalType": "uint256",
              "name": "released",
              "type": "uint256"
            }
          ],
          "internalType": "struct TokenVesting.VestingSchedule",
          "name": "",
          "type": "tuple"
        }
      ],
      "stateMutability": "view",
      "type": "function"
    },
    {
      "inputs": [],
      "name": "getVestingSchedulesTotalAmount",
      "outputs": [
        {
          "internalType": "uint256",
          "name": "",
          "type": "uint256"
        }
      ],
      "stateMutability": "view",
      "type": "function"
    },
    {
      "inputs": [],
      "name": "getWithdrawableAmount",
      "outputs": [
        {
          "internalType": "uint256",
          "name": "",
          "type": "uint256"
        }
      ],
      "stateMutability": "view",
      "type": "function"
    },
    {
      "inputs": [
        {
          "internalType": "address",
          "name": "addr",
          "type": "address"
        }
      ],
      "name": "isBeneficiary",
      "outputs": [
        {
          "internalType": "bool",
          "name": "",
          "type": "bool"
        }
      ],
      "stateMutability": "view",
      "type": "function"
    },
    {
      "inputs": [],
      "name": "isInitialized",
      "outputs": [
        {
          "internalType": "bool",
          "name": "",
          "type": "bool"
        }
      ],
      "stateMutability": "view",
      "type": "function"
    },
    {
      "inputs": [],
      "name": "owner",
      "outputs": [
        {
          "internalType": "address",
          "name": "",
          "type": "address"
        }
      ],
      "stateMutability": "view",
      "type": "function"
    },
    {
      "inputs": [],
      "name": "paused",
      "outputs": [
        {
          "internalType": "bool",
          "name": "",
          "type": "bool"
        }
      ],
      "stateMutability": "view",
      "type": "function"
    }
  ],
  "bytecode": "0x608060405234801561001057600080fd5b5060006100216100e660201b60201c565b9050806000806101000a81548173ffffffffffffffffffffffffffffffffffffffff021916908373ffffffffffffffffffffffffffffffffffffffff1602179055508073ffffffffffffffffffffffffffffffffffffffff16600073ffffffffffffffffffffffffffffffffffffffff167f8be0079c531659141344cd1fd0a4f28419497f9722a3daafe3b4186f6b6457e060405160405180910390a350600180819055506000600260006101000a81548160ff0219169083151502179055506100ee565b600033905090565b6130b780620000fe6000396000f3fe608060405234801561001057600080fd5b50600436106101215760003560e01c80638c30779b116100ad5780639f829063116100715780639f8290631461029c578063a878aee6146102cc578063c4d66de8146102e8578063ecd0c0c314610304578063f2fde38b1461032257610121565b80638c30779b146101e45780638da5cb5b1461021457806390be10cc1461023257806393e7b60b146102505780639d19b2261461026c57610121565b806348deb471116100f457806348deb4711461018a5780635c975abb146101a8578063715018a6146101c65780638456cb59146101d057806386d1a69f146101da57610121565b806321df0da71461012657806329cb924d14610144578063392e53cd146101625780633f4ba83a14610180575b600080fd5b61012e61033e565b60405161013b9190611e10565b60405180910390f35b61014c610368565b6040516101599190611e44565b60405180910390f35b61016a610370565b6040516101779190611e7a565b60405180910390f35b610188610383565b005b610192610409565b60405161019f9190611e44565b60405180910390f35b6101b0610413565b6040516101bd9190611e7a565b60405180910390f35b6101ce61042a565b005b6101d8610564565b005b6101e26105ea565b005b6101fe60048036038101906101f99190611ed5565b6108f3565b60405161020b9190611e44565b60405180910390f35b61021c610a2e565b6040516102299190611e10565b60405180910390f35b61023a610a57565b6040516102479190611e44565b60405180910390f35b61026a60048036038101906102659190612087565b610b07565b005b61028660048036038101906102819190611ed5565b611103565b6040516102939190611e7a565b60405180910390f35b6102b660048036038101906102b19190611ed5565b61119d565b6040516102c391906121dc565b60405180910390f35b6102e660048036038101906102e19190612235565b611288565b005b61030260048036038101906102fd9190611ed5565b6114b7565b005b61030c611694565b60405161031991906122c1565b60405180910390f35b61033c60048036038101906103379190611ed5565b6116ba565b005b6000600260019054906101000a900473ffffffffffffffffffffffffffffffffffffffff16905090565b600042905090565b600260159054906101000a900460ff1681565b61038b611862565b73ffffffffffffffffffffffffffffffffffffffff166103a9610a2e565b73ffffffffffffffffffffffffffffffffffffffff16146103ff576040517f08c379a00000000000000000000000000000000000000000000000000000000081526004016103f690612339565b60405180910390fd5b61040761186a565b565b6000600454905090565b6000600260009054906101000a900460ff16905090565b610432611862565b73ffffffffffffffffffffffffffffffffffffffff16610450610a2e565b73ffffffffffffffffffffffffffffffffffffffff16146104a6576040517f08c379a000000000000000000000000000000000000000000000000000000000815260040161049d90612339565b60405180910390fd5b600073ffffffffffffffffffffffffffffffffffffffff1660008054906101000a900473ffffffffffffffffffffffffffffffffffffffff1673ffffffffffffffffffffffffffffffffffffffff167f8be0079c531659141344cd1fd0a4f28419497f9722a3daafe3b4186f6b6457e060405160405180910390a360008060006101000a81548173ffffffffffffffffffffffffffffffffffffffff021916908373ffffffffffffffffffffffffffffffffffffffff160217905550565b61056c611862565b73ffffffffffffffffffffffffffffffffffffffff1661058a610a2e565b73ffffffffffffffffffffffffffffffffffffffff16146105e0576040517f08c379a00000000000000000000000000000000000000000000000000000000081526004016105d790612339565b60405180910390fd5b6105e861190c565b565b6105f2610413565b15610632576040517f08c379a0000000000000000000000000000000000000000000000000000000008152600401610629906123a5565b60405180910390fd5b600260015403610677576040517f08c379a000000000000000000000000000000000000000000000000000000000815260040161066e90612411565b60405180910390fd5b600260018190555061068833611103565b6106c7576040517f08c379a00000000000000000000000000000000000000000000000000000000081526004016106be9061247d565b60405180910390fd5b6000600560003373ffffffffffffffffffffffffffffffffffffffff1673ffffffffffffffffffffffffffffffffffffffff168152602001908152602001600020905060006107b2826040518060e00160405290816000820160009054906101000a900473ffffffffffffffffffffffffffffffffffffffff1673ffffffffffffffffffffffffffffffffffffffff1673ffffffffffffffffffffffffffffffffffffffff16815260200160018201548152602001600282015481526020016003820154815260200160048201548152602001600582015481526020016006820154815250506119af565b9050600081116107f7576040517f08c379a00000000000000000000000000000000000000000000000000000000081526004016107ee906124e9565b60405180910390fd5b8082600601546108079190612538565b826006018190555060008260000160009054906101000a900473ffffffffffffffffffffffffffffffffffffffff16905081600454610846919061256c565b6004819055506108998183600260019054906101000a900473ffffffffffffffffffffffffffffffffffffffff1673ffffffffffffffffffffffffffffffffffffffff16611a899092919063ffffffff16565b3373ffffffffffffffffffffffffffffffffffffffff167fb21fb52d5749b80f3182f8c6992236b5e5576681880914484d7f4c9b062e619e836040516108df9190611e44565b60405180910390a250505060018081905550565b60006108fe82611103565b61093d576040517f08c379a00000000000000000000000000000000000000000000000000000000081526004016109349061247d565b60405180910390fd5b6000600560008473ffffffffffffffffffffffffffffffffffffffff1673ffffffffffffffffffffffffffffffffffffffff1681526020019081526020016000209050610a26816040518060e00160405290816000820160009054906101000a900473ffffffffffffffffffffffffffffffffffffffff1673ffffffffffffffffffffffffffffffffffffffff1673ffffffffffffffffffffffffffffffffffffffff16815260200160018201548152602001600282015481526020016003820154815260200160048201548152602001600582015481526020016006820154815250506119af565b915050919050565b60008060009054906101000a900473ffffffffffffffffffffffffffffffffffffffff16905090565b6000600454600260019054906101000a900473ffffffffffffffffffffffffffffffffffffffff1673ffffffffffffffffffffffffffffffffffffffff166370a08231306040518263ffffffff1660e01b8152600401610ab79190611e10565b602060405180830381865afa158015610ad4573d6000803e3d6000fd5b505050506040513d601f19601f82011682018060405250810190610af891906125b5565b610b02919061256c565b905090565b610b0f611862565b73ffffffffffffffffffffffffffffffffffffffff16610b2d610a2e565b73ffffffffffffffffffffffffffffffffffffffff1614610b83576040517f08c379a0000000000000000000000000000000000000000000000000000000008152600401610b7a90612339565b60405180910390fd5b600260159054906101000a900460ff16610bd2576040517f08c379a0000000000000000000000000000000000000000000000000000000008152600401610bc99061262e565b60405180910390fd5b6000865111610c16576040517f08c379a0000000000000000000000000000000000000000000000000000000008152600401610c0d9061269a565b60405180910390fd5b803073ffffffffffffffffffffffffffffffffffffffff166390be10cc6040518163ffffffff1660e01b8152600401602060405180830381865afa158015610c62573d6000803e3d6000fd5b505050506040513d601f19601f82011682018060405250810190610c8691906125b5565b1015610cc7576040517f08c379a0000000000000000000000000000000000000000000000000000000008152600401610cbe90612752565b60405180910390fd5b60008311610d0a576040517f08c379a0000000000000000000000000000000000000000000000000000000008152600401610d01906127e4565b60405180910390fd5b60008111610d4d576040517f08c379a0000000000000000000000000000000000000000000000000000000008152600401610d4490612850565b60405180910390fd5b6001821015610d91576040517f08c379a0000000000000000000000000000000000000000000000000000000008152600401610d88906128e2565b60405180910390fd5b60005b86518110156110fa576000878281518110610db257610db1612902565b5b60200260200101519050600073ffffffffffffffffffffffffffffffffffffffff168173ffffffffffffffffffffffffffffffffffffffff1603610e2b576040517f08c379a0000000000000000000000000000000000000000000000000000000008152600401610e229061297d565b60405180910390fd5b600073ffffffffffffffffffffffffffffffffffffffff16600560008373ffffffffffffffffffffffffffffffffffffffff1673ffffffffffffffffffffffffffffffffffffffff16815260200190815260200160002060000160009054906101000a900473ffffffffffffffffffffffffffffffffffffffff1673ffffffffffffffffffffffffffffffffffffffff1614610efc576040517f08c379a0000000000000000000000000000000000000000000000000000000008152600401610ef390612a0f565b60405180910390fd5b60008688610f0a9190612538565b90506040518060e001604052808373ffffffffffffffffffffffffffffffffffffffff1681526020018981526020018281526020018781526020018681526020018581526020016000815250600560008473ffffffffffffffffffffffffffffffffffffffff1673ffffffffffffffffffffffffffffffffffffffff16815260200190815260200160002060008201518160000160006101000a81548173ffffffffffffffffffffffffffffffffffffffff021916908373ffffffffffffffffffffffffffffffffffffffff1602179055506020820151816001015560408201518160020155606082015181600301556080820151816004015560a0820151816005015560c08201518160060155905050836004600082825461102d9190612538565b925050819055506003829080600181540180825580915050600190039060005260206000200160009091909190916101000a81548173ffffffffffffffffffffffffffffffffffffffff021916908373ffffffffffffffffffffffffffffffffffffffff1602179055508173ffffffffffffffffffffffffffffffffffffffff167f2f5488c5b0350655053f3d00e1693b26a49ecd0242b2c0df881ccda054490d30856040516110dd9190611e44565b60405180910390a2505080806110f290612a2f565b915050610d94565b50505050505050565b60008173ffffffffffffffffffffffffffffffffffffffff16600560008473ffffffffffffffffffffffffffffffffffffffff1673ffffffffffffffffffffffffffffffffffffffff16815260200190815260200160002060000160009054906101000a900473ffffffffffffffffffffffffffffffffffffffff1673ffffffffffffffffffffffffffffffffffffffff16149050919050565b6111a5611d7c565b600560008373ffffffffffffffffffffffffffffffffffffffff1673ffffffffffffffffffffffffffffffffffffffff1681526020019081526020016000206040518060e00160405290816000820160009054906101000a900473ffffffffffffffffffffffffffffffffffffffff1673ffffffffffffffffffffffffffffffffffffffff1673ffffffffffffffffffffffffffffffffffffffff16815260200160018201548152602001600282015481526020016003820154815260200160048201548152602001600582015481526020016006820154815250509050919050565b611290611862565b73ffffffffffffffffffffffffffffffffffffffff166112ae610a2e565b73ffffffffffffffffffffffffffffffffffffffff1614611304576040517f08c379a00000000000000000000000000000000000000000000000000000000081526004016112fb90612339565b60405180910390fd5b600260015403611349576040517f08c379a000000000000000000000000000000000000000000000000000000000815260040161134090612411565b60405180910390fd5b6002600181905550600073ffffffffffffffffffffffffffffffffffffffff168173ffffffffffffffffffffffffffffffffffffffff16036113c0576040517f08c379a00000000000000000000000000000000000000000000000000000000081526004016113b790612ac3565b60405180910390fd5b60008173ffffffffffffffffffffffffffffffffffffffff166370a08231306040518263ffffffff1660e01b81526004016113fb9190611e10565b602060405180830381865afa158015611418573d6000803e3d6000fd5b505050506040513d601f19601f8201168201806040525081019061143c91906125b5565b905060008111611481576040517f08c379a000000000000000000000000000000000000000000000000000000000815260040161147890612b55565b60405180910390fd5b6114ac33828473ffffffffffffffffffffffffffffffffffffffff16611a899092919063ffffffff16565b506001808190555050565b6114bf611862565b73ffffffffffffffffffffffffffffffffffffffff166114dd610a2e565b73ffffffffffffffffffffffffffffffffffffffff1614611533576040517f08c379a000000000000000000000000000000000000000000000000000000000815260040161152a90612339565b60405180910390fd5b600073ffffffffffffffffffffffffffffffffffffffff168173ffffffffffffffffffffffffffffffffffffffff16036115a2576040517f08c379a00000000000000000000000000000000000000000000000000000000081526004016115999061297d565b60405180910390fd5b600260159054906101000a900460ff16156115f2576040517f08c379a00000000000000000000000000000000000000000000000000000000081526004016115e990612bc1565b60405180910390fd5b80600260016101000a81548173ffffffffffffffffffffffffffffffffffffffff021916908373ffffffffffffffffffffffffffffffffffffffff1602179055506001600260156101000a81548160ff0219169083151502179055508073ffffffffffffffffffffffffffffffffffffffff167f908408e307fc569b417f6cbec5d5a06f44a0a505ac0479b47d421a4b2fd6a1e660405160405180910390a250565b600260019054906101000a900473ffffffffffffffffffffffffffffffffffffffff1681565b6116c2611862565b73ffffffffffffffffffffffffffffffffffffffff166116e0610a2e565b73ffffffffffffffffffffffffffffffffffffffff1614611736576040517f08c379a000000000000000000000000000000000000000000000000000000000815260040161172d90612339565b60405180910390fd5b600073ffffffffffffffffffffffffffffffffffffffff168173ffffffffffffffffffffffffffffffffffffffff16036117a5576040517f08c379a000000000000000000000000000000000000000000000000000000000815260040161179c90612c53565b60405180910390fd5b8073ffffffffffffffffffffffffffffffffffffffff1660008054906101000a900473ffffffffffffffffffffffffffffffffffffffff1673ffffffffffffffffffffffffffffffffffffffff167f8be0079c531659141344cd1fd0a4f28419497f9722a3daafe3b4186f6b6457e060405160405180910390a3806000806101000a81548173ffffffffffffffffffffffffffffffffffffffff021916908373ffffffffffffffffffffffffffffffffffffffff16021790555050565b600033905090565b611872610413565b6118b1576040517f08c379a00000000000000000000000000000000000000000000000000000000081526004016118a890612cbf565b60405180910390fd5b6000600260006101000a81548160ff0219169083151502179055507f5db9ee0a495bf2e6ff9c91a7834c1ba4fdd244a5e8aa4e537bd38aeae4b073aa6118f5611862565b6040516119029190611e10565b60405180910390a1565b611914610413565b15611954576040517f08c379a000000000000000000000000000000000000000000000000000000000815260040161194b906123a5565b60405180910390fd5b6001600260006101000a81548160ff0219169083151502179055507f62e78cea01bee320cd4e420270b5ea74000d11b0c9f74754ebdbfc544b05a258611998611862565b6040516119a59190611e10565b60405180910390a1565b6000806119ba610368565b905082604001518110156119d2576000915050611a84565b826060015183604001516119e69190612538565b8110611a08578260c001518360a00151611a00919061256c565b915050611a84565b6000836040015182611a1a919061256c565b905060008460800151905060008183611a339190612d0e565b905060008282611a439190612d3f565b905060008760600151828960a00151611a5c9190612d3f565b611a669190612d0e565b90508760c0015181611a78919061256c565b90508096505050505050505b919050565b611b0a8363a9059cbb60e01b8484604051602401611aa8929190612d81565b604051602081830303815290604052907bffffffffffffffffffffffffffffffffffffffffffffffffffffffff19166020820180517bffffffffffffffffffffffffffffffffffffffffffffffffffffffff8381831617835250505050611b0f565b505050565b6000611b71826040518060400160405280602081526020017f5361666545524332303a206c6f772d6c6576656c2063616c6c206661696c65648152508573ffffffffffffffffffffffffffffffffffffffff16611bd69092919063ffffffff16565b9050600081511115611bd15780806020019051810190611b919190612dd6565b611bd0576040517f08c379a0000000000000000000000000000000000000000000000000000000008152600401611bc790612e75565b60405180910390fd5b5b505050565b6060611be58484600085611bee565b90509392505050565b606082471015611c33576040517f08c379a0000000000000000000000000000000000000000000000000000000008152600401611c2a90612f07565b60405180910390fd5b611c3c85611d02565b611c7b576040517f08c379a0000000000000000000000000000000000000000000000000000000008152600401611c7290612f73565b60405180910390fd5b6000808673ffffffffffffffffffffffffffffffffffffffff168587604051611ca49190613004565b60006040518083038185875af1925050503d8060008114611ce1576040519150601f19603f3d011682016040523d82523d6000602084013e611ce6565b606091505b5091509150611cf6828286611d15565b92505050949350505050565b600080823b905060008111915050919050565b60608315611d2557829050611d75565b600083511115611d385782518084602001fd5b816040517f08c379a0000000000000000000000000000000000000000000000000000000008152600401611d6c919061305f565b60405180910390fd5b9392505050565b6040518060e00160405280600073ffffffffffffffffffffffffffffffffffffffff1681526020016000815260200160008152602001600081526020016000815260200160008152602001600081525090565b600073ffffffffffffffffffffffffffffffffffffffff82169050919050565b6000611dfa82611dcf565b9050919050565b611e0a81611def565b82525050565b6000602082019050611e256000830184611e01565b92915050565b6000819050919050565b611e3e81611e2b565b82525050565b6000602082019050611e596000830184611e35565b92915050565b60008115159050919050565b611e7481611e5f565b82525050565b6000602082019050611e8f6000830184611e6b565b92915050565b6000604051905090565b600080fd5b600080fd5b611eb281611def565b8114611ebd57600080fd5b50565b600081359050611ecf81611ea9565b92915050565b600060208284031215611eeb57611eea611e9f565b5b6000611ef984828501611ec0565b91505092915050565b600080fd5b6000601f19601f8301169050919050565b7f4e487b7100000000000000000000000000000000000000000000000000000000600052604160045260246000fd5b611f5082611f07565b810181811067ffffffffffffffff82111715611f6f57611f6e611f18565b5b80604052505050565b6000611f82611e95565b9050611f8e8282611f47565b919050565b600067ffffffffffffffff821115611fae57611fad611f18565b5b602082029050602081019050919050565b600080fd5b6000611fd7611fd284611f93565b611f78565b90508083825260208201905060208402830185811115611ffa57611ff9611fbf565b5b835b81811015612023578061200f8882611ec0565b845260208401935050602081019050611ffc565b5050509392505050565b600082601f83011261204257612041611f02565b5b8135612052848260208601611fc4565b91505092915050565b61206481611e2b565b811461206f57600080fd5b50565b6000813590506120818161205b565b92915050565b60008060008060008060c087890312156120a4576120a3611e9f565b5b600087013567ffffffffffffffff8111156120c2576120c1611ea4565b5b6120ce89828a0161202d565b96505060206120df89828a01612072565b95505060406120f089828a01612072565b945050606061210189828a01612072565b935050608061211289828a01612072565b92505060a061212389828a01612072565b9150509295509295509295565b61213981611def565b82525050565b61214881611e2b565b82525050565b60e0820160008201516121646000850182612130565b506020820151612177602085018261213f565b50604082015161218a604085018261213f565b50606082015161219d606085018261213f565b5060808201516121b0608085018261213f565b5060a08201516121c360a085018261213f565b5060c08201516121d660c085018261213f565b50505050565b600060e0820190506121f1600083018461214e565b92915050565b600061220282611def565b9050919050565b612212816121f7565b811461221d57600080fd5b50565b60008135905061222f81612209565b92915050565b60006020828403121561224b5761224a611e9f565b5b600061225984828501612220565b91505092915050565b6000819050919050565b600061228761228261227d84611dcf565b612262565b611dcf565b9050919050565b60006122998261226c565b9050919050565b60006122ab8261228e565b9050919050565b6122bb816122a0565b82525050565b60006020820190506122d660008301846122b2565b92915050565b600082825260208201905092915050565b7f4f776e61626c653a2063616c6c6572206973206e6f7420746865206f776e6572600082015250565b60006123236020836122dc565b915061232e826122ed565b602082019050919050565b6000602082019050818103600083015261235281612316565b9050919050565b7f5061757361626c653a2070617573656400000000000000000000000000000000600082015250565b600061238f6010836122dc565b915061239a82612359565b602082019050919050565b600060208201905081810360008301526123be81612382565b9050919050565b7f5265656e7472616e637947756172643a207265656e7472616e742063616c6c00600082015250565b60006123fb601f836122dc565b9150612406826123c5565b602082019050919050565b6000602082019050818103600083015261242a816123ee565b9050919050565b7f4e6f742042656e65666963696172790000000000000000000000000000000000600082015250565b6000612467600f836122dc565b915061247282612431565b602082019050919050565b600060208201905081810360008301526124968161245a565b9050919050565b7f417661696c61626c652076657374656420616d6f756e74206973203000000000600082015250565b60006124d3601c836122dc565b91506124de8261249d565b602082019050919050565b60006020820190508181036000830152612502816124c6565b9050919050565b7f4e487b7100000000000000000000000000000000000000000000000000000000600052601160045260246000fd5b600061254382611e2b565b915061254e83611e2b565b925082820190508082111561256657612565612509565b5b92915050565b600061257782611e2b565b915061258283611e2b565b925082820390508181111561259a57612599612509565b5b92915050565b6000815190506125af8161205b565b92915050565b6000602082840312156125cb576125ca611e9f565b5b60006125d9848285016125a0565b91505092915050565b7f6e6f7420696e697469616c697a65640000000000000000000000000000000000600082015250565b6000612618600f836122dc565b9150612623826125e2565b602082019050919050565b600060208201905081810360008301526126478161260b565b9050919050565b7f62656e65666963696172696573206c69737420697320656d7074790000000000600082015250565b6000612684601b836122dc565b915061268f8261264e565b602082019050919050565b600060208201905081810360008301526126b381612677565b9050919050565b7f546f6b656e56657374696e673a2063616e6e6f7420637265617465207665737460008201527f696e67207363686564756c652062656361757365206e6f74207375666669636960208201527f656e7420746f6b656e7300000000000000000000000000000000000000000000604082015250565b600061273c604a836122dc565b9150612747826126ba565b606082019050919050565b6000602082019050818103600083015261276b8161272f565b9050919050565b7f546f6b656e56657374696e673a206475726174696f6e206d757374206265203e60008201527f2030000000000000000000000000000000000000000000000000000000000000602082015250565b60006127ce6022836122dc565b91506127d982612772565b604082019050919050565b600060208201905081810360008301526127fd816127c1565b9050919050565b7f546f6b656e56657374696e673a20616d6f756e74206d757374206265203e2030600082015250565b600061283a6020836122dc565b915061284582612804565b602082019050919050565b600060208201905081810360008301526128698161282d565b9050919050565b7f546f6b656e56657374696e673a20736c696365506572696f645365636f6e647360008201527f206d757374206265203e3d203100000000000000000000000000000000000000602082015250565b60006128cc602d836122dc565b91506128d782612870565b604082019050919050565b600060208201905081810360008301526128fb816128bf565b9050919050565b7f4e487b7100000000000000000000000000000000000000000000000000000000600052603260045260246000fd5b7f616464726573732063616e2774206265207a65726f0000000000000000000000600082015250565b60006129676015836122dc565b915061297282612931565b602082019050919050565b600060208201905081810360008301526129968161295a565b9050919050565b7f412076657374696e67207363686564756c6520616c726561647920657869737460008201527f7320666f72207468697320616464726573730000000000000000000000000000602082015250565b60006129f96032836122dc565b9150612a048261299d565b604082019050919050565b60006020820190508181036000830152612a28816129ec565b9050919050565b6000612a3a82611e2b565b91507fffffffffffffffffffffffffffffffffffffffffffffffffffffffffffffffff8203612a6c57612a6b612509565b5b600182019050919050565b7f546f6b656e20616464726573732063616e6e6f74206265207a65726f00000000600082015250565b6000612aad601c836122dc565b9150612ab882612a77565b602082019050919050565b60006020820190508181036000830152612adc81612aa0565b9050919050565b7f436f6e747261637420686173206e6f2062616c616e6365206f6620746869732060008201527f746f6b656e000000000000000000000000000000000000000000000000000000602082015250565b6000612b3f6025836122dc565b9150612b4a82612ae3565b604082019050919050565b60006020820190508181036000830152612b6e81612b32565b9050919050565b7f616c726561647920696e697469616c697a656400000000000000000000000000600082015250565b6000612bab6013836122dc565b9150612bb682612b75565b602082019050919050565b60006020820190508181036000830152612bda81612b9e565b9050919050565b7f4f776e61626c653a206e6577206f776e657220697320746865207a65726f206160008201527f6464726573730000000000000000000000000000000000000000000000000000602082015250565b6000612c3d6026836122dc565b9150612c4882612be1565b604082019050919050565b60006020820190508181036000830152612c6c81612c30565b9050919050565b7f5061757361626c653a206e6f7420706175736564000000000000000000000000600082015250565b6000612ca96014836122dc565b9150612cb482612c73565b602082019050919050565b60006020820190508181036000830152612cd881612c9c565b9050919050565b7f4e487b7100000000000000000000000000000000000000000000000000000000600052601260045260246000fd5b6000612d1982611e2b565b9150612d2483611e2b565b925082612d3457612d33612cdf565b5b828204905092915050565b6000612d4a82611e2b565b9150612d5583611e2b565b9250828202612d6381611e2b565b91508282048414831517612d7a57612d79612509565b5b5092915050565b6000604082019050612d966000830185611e01565b612da36020830184611e35565b9392505050565b612db381611e5f565b8114612dbe57600080fd5b50565b600081519050612dd081612daa565b92915050565b600060208284031215612dec57612deb611e9f565b5b6000612dfa84828501612dc1565b91505092915050565b7f5361666545524332303a204552433230206f7065726174696f6e20646964206e60008201527f6f74207375636365656400000000000000000000000000000000000000000000602082015250565b6000612e5f602a836122dc565b9150612e6a82612e03565b604082019050919050565b60006020820190508181036000830152612e8e81612e52565b9050919050565b7f416464726573733a20696e73756666696369656e742062616c616e636520666f60008201527f722063616c6c0000000000000000000000000000000000000000000000000000602082015250565b6000612ef16026836122dc565b9150612efc82612e95565b604082019050919050565b60006020820190508181036000830152612f2081612ee4565b9050919050565b7f416464726573733a2063616c6c20746f206e6f6e2d636f6e7472616374000000600082015250565b6000612f5d601d836122dc565b9150612f6882612f27565b602082019050919050565b60006020820190508181036000830152612f8c81612f50565b9050919050565b600081519050919050565b600081905092915050565b60005b83811015612fc7578082015181840152602081019050612fac565b60008484015250505050565b6000612fde82612f93565b612fe88185612f9e565b9350612ff8818560208601612fa9565b80840191505092915050565b60006130108284612fd3565b915081905092915050565b600081519050919050565b60006130318261301b565b61303b81856122dc565b935061304b818560208601612fa9565b61305481611f07565b840191505092915050565b600060208201905081810360008301526130798184613026565b90509291505056fea264697066735822122018f625eb239b387b1067661c26894b95c629f6d0e72d9cdf7382e7464ff953cb64736f6c63430008130033",
  "linkReferences": {},
  "deployedLinkReferences": {}
}