{
  "_format": "hh-sol-artifact-1",
  "contractName": "TokenVesting",
  "sourceName": "contracts/TokenVesting.sol",
  "abi": [
    {
      "anonymous": false,
      "inputs": [
        {
          "indexed": true,
          "internalType": "address",
          "name": "token",
          "type": "address"
        }
      ],
      "name": "Initialized",
      "type": "event"
    },
    {
      "anonymous": false,
      "inputs": [
        {
          "indexed": true,
          "internalType": "address",
          "name": "previousOwner",
          "type": "address"
        },
        {
          "indexed": true,
          "internalType": "address",
          "name": "newOwner",
          "type": "address"
        }
      ],
      "name": "OwnershipTransferred",
      "type": "event"
    },
    {
      "anonymous": false,
      "inputs": [
        {
          "indexed": false,
          "internalType": "address",
          "name": "account",
          "type": "address"
        }
      ],
      "name": "Paused",
      "type": "event"
    },
    {
      "anonymous": false,
      "inputs": [
        {
          "indexed": true,
          "internalType": "address",
          "name": "beneficiary",
          "type": "address"
        },
        {
          "indexed": false,
          "internalType": "uint256",
          "name": "amount",
          "type": "uint256"
        }
      ],
      "name": "Released",
      "type": "event"
    },
    {
      "anonymous": false,
      "inputs": [
        {
          "indexed": false,
          "internalType": "address",
          "name": "account",
          "type": "address"
        }
      ],
      "name": "Unpaused",
      "type": "event"
    },
    {
      "anonymous": false,
      "inputs": [
        {
          "indexed": true,
          "internalType": "address",
          "name": "beneficiary",
          "type": "address"
        },
        {
          "indexed": false,
          "internalType": "uint256",
          "name": "amount",
          "type": "uint256"
        }
      ],
      "name": "VestingCreated",
      "type": "event"
    },
    {
      "inputs": [],
      "name": "_token",
      "outputs": [
        {
          "internalType": "contract IERC20",
          "name": "",
          "type": "address"
        }
      ],
      "stateMutability": "view",
      "type": "function"
    },
    {
      "inputs": [
        {
          "internalType": "address[]",
          "name": "_beneficiaries",
          "type": "address[]"
        },
        {
          "internalType": "uint256",
          "name": "_start",
          "type": "uint256"
        },
        {
          "internalType": "uint256",
          "name": "_cliff",
          "type": "uint256"
        },
        {
          "internalType": "uint256",
          "name": "_duration",
          "type": "uint256"
        },
        {
          "internalType": "uint256",
          "name": "_slicePeriodSeconds",
          "type": "uint256"
        },
        {
          "internalType": "uint256",
          "name": "_totalAllocation",
          "type": "uint256"
        }
      ],
      "name": "createVestingSchedule",
      "outputs": [],
      "stateMutability": "nonpayable",
      "type": "function"
    },
    {
      "inputs": [
        {
          "internalType": "address",
          "name": "_beneficiary",
          "type": "address"
        }
      ],
      "name": "getAvailableVestingAmount",
      "outputs": [
        {
          "internalType": "uint256",
          "name": "",
          "type": "uint256"
        }
      ],
      "stateMutability": "view",
      "type": "function"
    },
    {
      "inputs": [],
      "name": "getCurrentTime",
      "outputs": [
        {
          "internalType": "uint256",
          "name": "",
          "type": "uint256"
        }
      ],
      "stateMutability": "view",
      "type": "function"
    },
    {
      "inputs": [],
      "name": "getToken",
      "outputs": [
        {
          "internalType": "address",
          "name": "",
          "type": "address"
        }
      ],
      "stateMutability": "view",
      "type": "function"
    },
    {
      "inputs": [
        {
          "internalType": "address",
          "name": "_beneficiary",
          "type": "address"
        }
      ],
      "name": "getVestingSchedule",
      "outputs": [
        {
          "components": [
            {
              "internalType": "address",
              "name": "beneficiary",
              "type": "address"
            },
            {
              "internalType": "uint256",
              "name": "start",
              "type": "uint256"
            },
            {
              "internalType": "uint256",
              "name": "cliff",
              "type": "uint256"
            },
            {
              "internalType": "uint256",
              "name": "duration",
              "type": "uint256"
            },
            {
              "internalType": "uint256",
              "name": "slicePeriodSeconds",
              "type": "uint256"
            },
            {
              "internalType": "uint256",
              "name": "amountTotal",
              "type": "uint256"
            },
            {
              "internalType": "uint256",
              "name": "released",
              "type": "uint256"
            }
          ],
          "internalType": "struct TokenVesting.VestingSchedule",
          "name": "",
          "type": "tuple"
        }
      ],
      "stateMutability": "view",
      "type": "function"
    },
    {
      "inputs": [],
      "name": "getVestingSchedulesTotalAmount",
      "outputs": [
        {
          "internalType": "uint256",
          "name": "",
          "type": "uint256"
        }
      ],
      "stateMutability": "view",
      "type": "function"
    },
    {
      "inputs": [],
      "name": "getWithdrawableAmount",
      "outputs": [
        {
          "internalType": "uint256",
          "name": "",
          "type": "uint256"
        }
      ],
      "stateMutability": "view",
      "type": "function"
    },
    {
      "inputs": [
        {
          "internalType": "address",
          "name": "token_",
          "type": "address"
        }
      ],
      "name": "initialize",
      "outputs": [],
      "stateMutability": "nonpayable",
      "type": "function"
    },
    {
      "inputs": [
        {
          "internalType": "address",
          "name": "addr",
          "type": "address"
        }
      ],
      "name": "isBeneficiary",
      "outputs": [
        {
          "internalType": "bool",
          "name": "",
          "type": "bool"
        }
      ],
      "stateMutability": "view",
      "type": "function"
    },
    {
      "inputs": [],
      "name": "isInitialized",
      "outputs": [
        {
          "internalType": "bool",
          "name": "",
          "type": "bool"
        }
      ],
      "stateMutability": "view",
      "type": "function"
    },
    {
      "inputs": [],
      "name": "owner",
      "outputs": [
        {
          "internalType": "address",
          "name": "",
          "type": "address"
        }
      ],
      "stateMutability": "view",
      "type": "function"
    },
    {
      "inputs": [],
      "name": "pause",
      "outputs": [],
      "stateMutability": "nonpayable",
      "type": "function"
    },
    {
      "inputs": [],
      "name": "paused",
      "outputs": [
        {
          "internalType": "bool",
          "name": "",
          "type": "bool"
        }
      ],
      "stateMutability": "view",
      "type": "function"
    },
    {
      "inputs": [],
      "name": "release",
      "outputs": [],
      "stateMutability": "nonpayable",
      "type": "function"
    },
    {
      "inputs": [],
      "name": "renounceOwnership",
      "outputs": [],
      "stateMutability": "nonpayable",
      "type": "function"
    },
    {
      "inputs": [
        {
          "internalType": "address",
          "name": "newOwner",
          "type": "address"
        }
      ],
      "name": "transferOwnership",
      "outputs": [],
      "stateMutability": "nonpayable",
      "type": "function"
    },
    {
      "inputs": [],
      "name": "unpause",
      "outputs": [],
      "stateMutability": "nonpayable",
      "type": "function"
    },
    {
      "inputs": [
        {
          "internalType": "contract IERC20",
          "name": "tokenContract",
          "type": "address"
        }
      ],
      "name": "withdrawAllTokens",
      "outputs": [],
      "stateMutability": "nonpayable",
      "type": "function"
    }
  ],
  "bytecode": "0x608060405234801561001057600080fd5b5060006100216100e660201b60201c565b9050806000806101000a81548173ffffffffffffffffffffffffffffffffffffffff021916908373ffffffffffffffffffffffffffffffffffffffff1602179055508073ffffffffffffffffffffffffffffffffffffffff16600073ffffffffffffffffffffffffffffffffffffffff167f8be0079c531659141344cd1fd0a4f28419497f9722a3daafe3b4186f6b6457e060405160405180910390a350600180819055506000600260006101000a81548160ff0219169083151502179055506100ee565b600033905090565b6130ec80620000fe6000396000f3fe608060405234801561001057600080fd5b50600436106101215760003560e01c80638c30779b116100ad5780639f829063116100715780639f8290631461029c578063a878aee6146102cc578063c4d66de8146102e8578063ecd0c0c314610304578063f2fde38b1461032257610121565b80638c30779b146101e45780638da5cb5b1461021457806390be10cc1461023257806393e7b60b146102505780639d19b2261461026c57610121565b806348deb471116100f457806348deb4711461018a5780635c975abb146101a8578063715018a6146101c65780638456cb59146101d057806386d1a69f146101da57610121565b806321df0da71461012657806329cb924d14610144578063392e53cd146101625780633f4ba83a14610180575b600080fd5b61012e61033e565b60405161013b9190611e45565b60405180910390f35b61014c610368565b6040516101599190611e79565b60405180910390f35b61016a610370565b6040516101779190611eaf565b60405180910390f35b610188610383565b005b610192610409565b60405161019f9190611e79565b60405180910390f35b6101b0610413565b6040516101bd9190611eaf565b60405180910390f35b6101ce61042a565b005b6101d8610564565b005b6101e26105ea565b005b6101fe60048036038101906101f99190611f0a565b6108f3565b60405161020b9190611e79565b60405180910390f35b61021c610a2e565b6040516102299190611e45565b60405180910390f35b61023a610a57565b6040516102479190611e79565b60405180910390f35b61026a600480360381019061026591906120bc565b610b07565b005b61028660048036038101906102819190611f0a565b611103565b6040516102939190611eaf565b60405180910390f35b6102b660048036038101906102b19190611f0a565b61119d565b6040516102c39190612211565b60405180910390f35b6102e660048036038101906102e1919061226a565b611288565b005b61030260048036038101906102fd9190611f0a565b6114b7565b005b61030c611694565b60405161031991906122f6565b60405180910390f35b61033c60048036038101906103379190611f0a565b6116ba565b005b6000600260019054906101000a900473ffffffffffffffffffffffffffffffffffffffff16905090565b600042905090565b600260159054906101000a900460ff1681565b61038b611862565b73ffffffffffffffffffffffffffffffffffffffff166103a9610a2e565b73ffffffffffffffffffffffffffffffffffffffff16146103ff576040517f08c379a00000000000000000000000000000000000000000000000000000000081526004016103f69061236e565b60405180910390fd5b61040761186a565b565b6000600454905090565b6000600260009054906101000a900460ff16905090565b610432611862565b73ffffffffffffffffffffffffffffffffffffffff16610450610a2e565b73ffffffffffffffffffffffffffffffffffffffff16146104a6576040517f08c379a000000000000000000000000000000000000000000000000000000000815260040161049d9061236e565b60405180910390fd5b600073ffffffffffffffffffffffffffffffffffffffff1660008054906101000a900473ffffffffffffffffffffffffffffffffffffffff1673ffffffffffffffffffffffffffffffffffffffff167f8be0079c531659141344cd1fd0a4f28419497f9722a3daafe3b4186f6b6457e060405160405180910390a360008060006101000a81548173ffffffffffffffffffffffffffffffffffffffff021916908373ffffffffffffffffffffffffffffffffffffffff160217905550565b61056c611862565b73ffffffffffffffffffffffffffffffffffffffff1661058a610a2e565b73ffffffffffffffffffffffffffffffffffffffff16146105e0576040517f08c379a00000000000000000000000000000000000000000000000000000000081526004016105d79061236e565b60405180910390fd5b6105e861190c565b565b6105f2610413565b15610632576040517f08c379a0000000000000000000000000000000000000000000000000000000008152600401610629906123da565b60405180910390fd5b600260015403610677576040517f08c379a000000000000000000000000000000000000000000000000000000000815260040161066e90612446565b60405180910390fd5b600260018190555061068833611103565b6106c7576040517f08c379a00000000000000000000000000000000000000000000000000000000081526004016106be906124b2565b60405180910390fd5b6000600560003373ffffffffffffffffffffffffffffffffffffffff1673ffffffffffffffffffffffffffffffffffffffff168152602001908152602001600020905060006107b2826040518060e00160405290816000820160009054906101000a900473ffffffffffffffffffffffffffffffffffffffff1673ffffffffffffffffffffffffffffffffffffffff1673ffffffffffffffffffffffffffffffffffffffff16815260200160018201548152602001600282015481526020016003820154815260200160048201548152602001600582015481526020016006820154815250506119af565b9050600081116107f7576040517f08c379a00000000000000000000000000000000000000000000000000000000081526004016107ee9061251e565b60405180910390fd5b808260060154610807919061256d565b826006018190555060008260000160009054906101000a900473ffffffffffffffffffffffffffffffffffffffff1690508160045461084691906125a1565b6004819055506108998183600260019054906101000a900473ffffffffffffffffffffffffffffffffffffffff1673ffffffffffffffffffffffffffffffffffffffff16611aa59092919063ffffffff16565b3373ffffffffffffffffffffffffffffffffffffffff167fb21fb52d5749b80f3182f8c6992236b5e5576681880914484d7f4c9b062e619e836040516108df9190611e79565b60405180910390a250505060018081905550565b60006108fe82611103565b61093d576040517f08c379a0000000000000000000000000000000000000000000000000000000008152600401610934906124b2565b60405180910390fd5b6000600560008473ffffffffffffffffffffffffffffffffffffffff1673ffffffffffffffffffffffffffffffffffffffff1681526020019081526020016000209050610a26816040518060e00160405290816000820160009054906101000a900473ffffffffffffffffffffffffffffffffffffffff1673ffffffffffffffffffffffffffffffffffffffff1673ffffffffffffffffffffffffffffffffffffffff16815260200160018201548152602001600282015481526020016003820154815260200160048201548152602001600582015481526020016006820154815250506119af565b915050919050565b60008060009054906101000a900473ffffffffffffffffffffffffffffffffffffffff16905090565b6000600454600260019054906101000a900473ffffffffffffffffffffffffffffffffffffffff1673ffffffffffffffffffffffffffffffffffffffff166370a08231306040518263ffffffff1660e01b8152600401610ab79190611e45565b602060405180830381865afa158015610ad4573d6000803e3d6000fd5b505050506040513d601f19601f82011682018060405250810190610af891906125ea565b610b0291906125a1565b905090565b610b0f611862565b73ffffffffffffffffffffffffffffffffffffffff16610b2d610a2e565b73ffffffffffffffffffffffffffffffffffffffff1614610b83576040517f08c379a0000000000000000000000000000000000000000000000000000000008152600401610b7a9061236e565b60405180910390fd5b600260159054906101000a900460ff16610bd2576040517f08c379a0000000000000000000000000000000000000000000000000000000008152600401610bc990612663565b60405180910390fd5b6000865111610c16576040517f08c379a0000000000000000000000000000000000000000000000000000000008152600401610c0d906126cf565b60405180910390fd5b803073ffffffffffffffffffffffffffffffffffffffff166390be10cc6040518163ffffffff1660e01b8152600401602060405180830381865afa158015610c62573d6000803e3d6000fd5b505050506040513d601f19601f82011682018060405250810190610c8691906125ea565b1015610cc7576040517f08c379a0000000000000000000000000000000000000000000000000000000008152600401610cbe90612787565b60405180910390fd5b60008311610d0a576040517f08c379a0000000000000000000000000000000000000000000000000000000008152600401610d0190612819565b60405180910390fd5b60008111610d4d576040517f08c379a0000000000000000000000000000000000000000000000000000000008152600401610d4490612885565b60405180910390fd5b6001821015610d91576040517f08c379a0000000000000000000000000000000000000000000000000000000008152600401610d8890612917565b60405180910390fd5b60005b86518110156110fa576000878281518110610db257610db1612937565b5b60200260200101519050600073ffffffffffffffffffffffffffffffffffffffff168173ffffffffffffffffffffffffffffffffffffffff1603610e2b576040517f08c379a0000000000000000000000000000000000000000000000000000000008152600401610e22906129b2565b60405180910390fd5b600073ffffffffffffffffffffffffffffffffffffffff16600560008373ffffffffffffffffffffffffffffffffffffffff1673ffffffffffffffffffffffffffffffffffffffff16815260200190815260200160002060000160009054906101000a900473ffffffffffffffffffffffffffffffffffffffff1673ffffffffffffffffffffffffffffffffffffffff1614610efc576040517f08c379a0000000000000000000000000000000000000000000000000000000008152600401610ef390612a44565b60405180910390fd5b60008688610f0a919061256d565b90506040518060e001604052808373ffffffffffffffffffffffffffffffffffffffff1681526020018981526020018281526020018781526020018681526020018581526020016000815250600560008473ffffffffffffffffffffffffffffffffffffffff1673ffffffffffffffffffffffffffffffffffffffff16815260200190815260200160002060008201518160000160006101000a81548173ffffffffffffffffffffffffffffffffffffffff021916908373ffffffffffffffffffffffffffffffffffffffff1602179055506020820151816001015560408201518160020155606082015181600301556080820151816004015560a0820151816005015560c08201518160060155905050836004600082825461102d919061256d565b925050819055506003829080600181540180825580915050600190039060005260206000200160009091909190916101000a81548173ffffffffffffffffffffffffffffffffffffffff021916908373ffffffffffffffffffffffffffffffffffffffff1602179055508173ffffffffffffffffffffffffffffffffffffffff167f2f5488c5b0350655053f3d00e1693b26a49ecd0242b2c0df881ccda054490d30856040516110dd9190611e79565b60405180910390a2505080806110f290612a64565b915050610d94565b50505050505050565b60008173ffffffffffffffffffffffffffffffffffffffff16600560008473ffffffffffffffffffffffffffffffffffffffff1673ffffffffffffffffffffffffffffffffffffffff16815260200190815260200160002060000160009054906101000a900473ffffffffffffffffffffffffffffffffffffffff1673ffffffffffffffffffffffffffffffffffffffff16149050919050565b6111a5611db1565b600560008373ffffffffffffffffffffffffffffffffffffffff1673ffffffffffffffffffffffffffffffffffffffff1681526020019081526020016000206040518060e00160405290816000820160009054906101000a900473ffffffffffffffffffffffffffffffffffffffff1673ffffffffffffffffffffffffffffffffffffffff1673ffffffffffffffffffffffffffffffffffffffff16815260200160018201548152602001600282015481526020016003820154815260200160048201548152602001600582015481526020016006820154815250509050919050565b611290611862565b73ffffffffffffffffffffffffffffffffffffffff166112ae610a2e565b73ffffffffffffffffffffffffffffffffffffffff1614611304576040517f08c379a00000000000000000000000000000000000000000000000000000000081526004016112fb9061236e565b60405180910390fd5b600260015403611349576040517f08c379a000000000000000000000000000000000000000000000000000000000815260040161134090612446565b60405180910390fd5b6002600181905550600073ffffffffffffffffffffffffffffffffffffffff168173ffffffffffffffffffffffffffffffffffffffff16036113c0576040517f08c379a00000000000000000000000000000000000000000000000000000000081526004016113b790612af8565b60405180910390fd5b60008173ffffffffffffffffffffffffffffffffffffffff166370a08231306040518263ffffffff1660e01b81526004016113fb9190611e45565b602060405180830381865afa158015611418573d6000803e3d6000fd5b505050506040513d601f19601f8201168201806040525081019061143c91906125ea565b905060008111611481576040517f08c379a000000000000000000000000000000000000000000000000000000000815260040161147890612b8a565b60405180910390fd5b6114ac33828473ffffffffffffffffffffffffffffffffffffffff16611aa59092919063ffffffff16565b506001808190555050565b6114bf611862565b73ffffffffffffffffffffffffffffffffffffffff166114dd610a2e565b73ffffffffffffffffffffffffffffffffffffffff1614611533576040517f08c379a000000000000000000000000000000000000000000000000000000000815260040161152a9061236e565b60405180910390fd5b600073ffffffffffffffffffffffffffffffffffffffff168173ffffffffffffffffffffffffffffffffffffffff16036115a2576040517f08c379a0000000000000000000000000000000000000000000000000000000008152600401611599906129b2565b60405180910390fd5b600260159054906101000a900460ff16156115f2576040517f08c379a00000000000000000000000000000000000000000000000000000000081526004016115e990612bf6565b60405180910390fd5b80600260016101000a81548173ffffffffffffffffffffffffffffffffffffffff021916908373ffffffffffffffffffffffffffffffffffffffff1602179055506001600260156101000a81548160ff0219169083151502179055508073ffffffffffffffffffffffffffffffffffffffff167f908408e307fc569b417f6cbec5d5a06f44a0a505ac0479b47d421a4b2fd6a1e660405160405180910390a250565b600260019054906101000a900473ffffffffffffffffffffffffffffffffffffffff1681565b6116c2611862565b73ffffffffffffffffffffffffffffffffffffffff166116e0610a2e565b73ffffffffffffffffffffffffffffffffffffffff1614611736576040517f08c379a000000000000000000000000000000000000000000000000000000000815260040161172d9061236e565b60405180910390fd5b600073ffffffffffffffffffffffffffffffffffffffff168173ffffffffffffffffffffffffffffffffffffffff16036117a5576040517f08c379a000000000000000000000000000000000000000000000000000000000815260040161179c90612c88565b60405180910390fd5b8073ffffffffffffffffffffffffffffffffffffffff1660008054906101000a900473ffffffffffffffffffffffffffffffffffffffff1673ffffffffffffffffffffffffffffffffffffffff167f8be0079c531659141344cd1fd0a4f28419497f9722a3daafe3b4186f6b6457e060405160405180910390a3806000806101000a81548173ffffffffffffffffffffffffffffffffffffffff021916908373ffffffffffffffffffffffffffffffffffffffff16021790555050565b600033905090565b611872610413565b6118b1576040517f08c379a00000000000000000000000000000000000000000000000000000000081526004016118a890612cf4565b60405180910390fd5b6000600260006101000a81548160ff0219169083151502179055507f5db9ee0a495bf2e6ff9c91a7834c1ba4fdd244a5e8aa4e537bd38aeae4b073aa6118f5611862565b6040516119029190611e45565b60405180910390a1565b611914610413565b15611954576040517f08c379a000000000000000000000000000000000000000000000000000000000815260040161194b906123da565b60405180910390fd5b6001600260006101000a81548160ff0219169083151502179055507f62e78cea01bee320cd4e420270b5ea74000d11b0c9f74754ebdbfc544b05a258611998611862565b6040516119a59190611e45565b60405180910390a1565b6000806119ba610368565b905082604001518110156119d2576000915050611aa0565b826060015183604001516119e6919061256d565b8110611a08578260c001518360a00151611a0091906125a1565b915050611aa0565b6000836040015182611a1a91906125a1565b9050600084608001519050600060018284611a359190612d43565b611a3f919061256d565b905060008282611a4f9190612d74565b905060008760600151828960a00151611a689190612d74565b611a729190612d43565b9050611a82818960a00151611b2b565b90508760c0015181611a9491906125a1565b90508096505050505050505b919050565b611b268363a9059cbb60e01b8484604051602401611ac4929190612db6565b604051602081830303815290604052907bffffffffffffffffffffffffffffffffffffffffffffffffffffffff19166020820180517bffffffffffffffffffffffffffffffffffffffffffffffffffffffff8381831617835250505050611b44565b505050565b6000818310611b3a5781611b3c565b825b905092915050565b6000611ba6826040518060400160405280602081526020017f5361666545524332303a206c6f772d6c6576656c2063616c6c206661696c65648152508573ffffffffffffffffffffffffffffffffffffffff16611c0b9092919063ffffffff16565b9050600081511115611c065780806020019051810190611bc69190612e0b565b611c05576040517f08c379a0000000000000000000000000000000000000000000000000000000008152600401611bfc90612eaa565b60405180910390fd5b5b505050565b6060611c1a8484600085611c23565b90509392505050565b606082471015611c68576040517f08c379a0000000000000000000000000000000000000000000000000000000008152600401611c5f90612f3c565b60405180910390fd5b611c7185611d37565b611cb0576040517f08c379a0000000000000000000000000000000000000000000000000000000008152600401611ca790612fa8565b60405180910390fd5b6000808673ffffffffffffffffffffffffffffffffffffffff168587604051611cd99190613039565b60006040518083038185875af1925050503d8060008114611d16576040519150601f19603f3d011682016040523d82523d6000602084013e611d1b565b606091505b5091509150611d2b828286611d4a565b92505050949350505050565b600080823b905060008111915050919050565b60608315611d5a57829050611daa565b600083511115611d6d5782518084602001fd5b816040517f08c379a0000000000000000000000000000000000000000000000000000000008152600401611da19190613094565b60405180910390fd5b9392505050565b6040518060e00160405280600073ffffffffffffffffffffffffffffffffffffffff1681526020016000815260200160008152602001600081526020016000815260200160008152602001600081525090565b600073ffffffffffffffffffffffffffffffffffffffff82169050919050565b6000611e2f82611e04565b9050919050565b611e3f81611e24565b82525050565b6000602082019050611e5a6000830184611e36565b92915050565b6000819050919050565b611e7381611e60565b82525050565b6000602082019050611e8e6000830184611e6a565b92915050565b60008115159050919050565b611ea981611e94565b82525050565b6000602082019050611ec46000830184611ea0565b92915050565b6000604051905090565b600080fd5b600080fd5b611ee781611e24565b8114611ef257600080fd5b50565b600081359050611f0481611ede565b92915050565b600060208284031215611f2057611f1f611ed4565b5b6000611f2e84828501611ef5565b91505092915050565b600080fd5b6000601f19601f8301169050919050565b7f4e487b7100000000000000000000000000000000000000000000000000000000600052604160045260246000fd5b611f8582611f3c565b810181811067ffffffffffffffff82111715611fa457611fa3611f4d565b5b80604052505050565b6000611fb7611eca565b9050611fc38282611f7c565b919050565b600067ffffffffffffffff821115611fe357611fe2611f4d565b5b602082029050602081019050919050565b600080fd5b600061200c61200784611fc8565b611fad565b9050808382526020820190506020840283018581111561202f5761202e611ff4565b5b835b8181101561205857806120448882611ef5565b845260208401935050602081019050612031565b5050509392505050565b600082601f83011261207757612076611f37565b5b8135612087848260208601611ff9565b91505092915050565b61209981611e60565b81146120a457600080fd5b50565b6000813590506120b681612090565b92915050565b60008060008060008060c087890312156120d9576120d8611ed4565b5b600087013567ffffffffffffffff8111156120f7576120f6611ed9565b5b61210389828a01612062565b965050602061211489828a016120a7565b955050604061212589828a016120a7565b945050606061213689828a016120a7565b935050608061214789828a016120a7565b92505060a061215889828a016120a7565b9150509295509295509295565b61216e81611e24565b82525050565b61217d81611e60565b82525050565b60e0820160008201516121996000850182612165565b5060208201516121ac6020850182612174565b5060408201516121bf6040850182612174565b5060608201516121d26060850182612174565b5060808201516121e56080850182612174565b5060a08201516121f860a0850182612174565b5060c082015161220b60c0850182612174565b50505050565b600060e0820190506122266000830184612183565b92915050565b600061223782611e24565b9050919050565b6122478161222c565b811461225257600080fd5b50565b6000813590506122648161223e565b92915050565b6000602082840312156122805761227f611ed4565b5b600061228e84828501612255565b91505092915050565b6000819050919050565b60006122bc6122b76122b284611e04565b612297565b611e04565b9050919050565b60006122ce826122a1565b9050919050565b60006122e0826122c3565b9050919050565b6122f0816122d5565b82525050565b600060208201905061230b60008301846122e7565b92915050565b600082825260208201905092915050565b7f4f776e61626c653a2063616c6c6572206973206e6f7420746865206f776e6572600082015250565b6000612358602083612311565b915061236382612322565b602082019050919050565b600060208201905081810360008301526123878161234b565b9050919050565b7f5061757361626c653a2070617573656400000000000000000000000000000000600082015250565b60006123c4601083612311565b91506123cf8261238e565b602082019050919050565b600060208201905081810360008301526123f3816123b7565b9050919050565b7f5265656e7472616e637947756172643a207265656e7472616e742063616c6c00600082015250565b6000612430601f83612311565b915061243b826123fa565b602082019050919050565b6000602082019050818103600083015261245f81612423565b9050919050565b7f4e6f742042656e65666963696172790000000000000000000000000000000000600082015250565b600061249c600f83612311565b91506124a782612466565b602082019050919050565b600060208201905081810360008301526124cb8161248f565b9050919050565b7f417661696c61626c652076657374656420616d6f756e74206973203000000000600082015250565b6000612508601c83612311565b9150612513826124d2565b602082019050919050565b60006020820190508181036000830152612537816124fb565b9050919050565b7f4e487b7100000000000000000000000000000000000000000000000000000000600052601160045260246000fd5b600061257882611e60565b915061258383611e60565b925082820190508082111561259b5761259a61253e565b5b92915050565b60006125ac82611e60565b91506125b783611e60565b92508282039050818111156125cf576125ce61253e565b5b92915050565b6000815190506125e481612090565b92915050565b600060208284031215612600576125ff611ed4565b5b600061260e848285016125d5565b91505092915050565b7f6e6f7420696e697469616c697a65640000000000000000000000000000000000600082015250565b600061264d600f83612311565b915061265882612617565b602082019050919050565b6000602082019050818103600083015261267c81612640565b9050919050565b7f62656e65666963696172696573206c69737420697320656d7074790000000000600082015250565b60006126b9601b83612311565b91506126c482612683565b602082019050919050565b600060208201905081810360008301526126e8816126ac565b9050919050565b7f546f6b656e56657374696e673a2063616e6e6f7420637265617465207665737460008201527f696e67207363686564756c652062656361757365206e6f74207375666669636960208201527f656e7420746f6b656e7300000000000000000000000000000000000000000000604082015250565b6000612771604a83612311565b915061277c826126ef565b606082019050919050565b600060208201905081810360008301526127a081612764565b9050919050565b7f546f6b656e56657374696e673a206475726174696f6e206d757374206265203e60008201527f2030000000000000000000000000000000000000000000000000000000000000602082015250565b6000612803602283612311565b915061280e826127a7565b604082019050919050565b60006020820190508181036000830152612832816127f6565b9050919050565b7f546f6b656e56657374696e673a20616d6f756e74206d757374206265203e2030600082015250565b600061286f602083612311565b915061287a82612839565b602082019050919050565b6000602082019050818103600083015261289e81612862565b9050919050565b7f546f6b656e56657374696e673a20736c696365506572696f645365636f6e647360008201527f206d757374206265203e3d203100000000000000000000000000000000000000602082015250565b6000612901602d83612311565b915061290c826128a5565b604082019050919050565b60006020820190508181036000830152612930816128f4565b9050919050565b7f4e487b7100000000000000000000000000000000000000000000000000000000600052603260045260246000fd5b7f616464726573732063616e2774206265207a65726f0000000000000000000000600082015250565b600061299c601583612311565b91506129a782612966565b602082019050919050565b600060208201905081810360008301526129cb8161298f565b9050919050565b7f412076657374696e67207363686564756c6520616c726561647920657869737460008201527f7320666f72207468697320616464726573730000000000000000000000000000602082015250565b6000612a2e603283612311565b9150612a39826129d2565b604082019050919050565b60006020820190508181036000830152612a5d81612a21565b9050919050565b6000612a6f82611e60565b91507fffffffffffffffffffffffffffffffffffffffffffffffffffffffffffffffff8203612aa157612aa061253e565b5b600182019050919050565b7f546f6b656e20616464726573732063616e6e6f74206265207a65726f00000000600082015250565b6000612ae2601c83612311565b9150612aed82612aac565b602082019050919050565b60006020820190508181036000830152612b1181612ad5565b9050919050565b7f436f6e747261637420686173206e6f2062616c616e6365206f6620746869732060008201527f746f6b656e000000000000000000000000000000000000000000000000000000602082015250565b6000612b74602583612311565b9150612b7f82612b18565b604082019050919050565b60006020820190508181036000830152612ba381612b67565b9050919050565b7f616c726561647920696e697469616c697a656400000000000000000000000000600082015250565b6000612be0601383612311565b9150612beb82612baa565b602082019050919050565b60006020820190508181036000830152612c0f81612bd3565b9050919050565b7f4f776e61626c653a206e6577206f776e657220697320746865207a65726f206160008201527f6464726573730000000000000000000000000000000000000000000000000000602082015250565b6000612c72602683612311565b9150612c7d82612c16565b604082019050919050565b60006020820190508181036000830152612ca181612c65565b9050919050565b7f5061757361626c653a206e6f7420706175736564000000000000000000000000600082015250565b6000612cde601483612311565b9150612ce982612ca8565b602082019050919050565b60006020820190508181036000830152612d0d81612cd1565b9050919050565b7f4e487b7100000000000000000000000000000000000000000000000000000000600052601260045260246000fd5b6000612d4e82611e60565b9150612d5983611e60565b925082612d6957612d68612d14565b5b828204905092915050565b6000612d7f82611e60565b9150612d8a83611e60565b9250828202612d9881611e60565b91508282048414831517612daf57612dae61253e565b5b5092915050565b6000604082019050612dcb6000830185611e36565b612dd86020830184611e6a565b9392505050565b612de881611e94565b8114612df357600080fd5b50565b600081519050612e0581612ddf565b92915050565b600060208284031215612e2157612e20611ed4565b5b6000612e2f84828501612df6565b91505092915050565b7f5361666545524332303a204552433230206f7065726174696f6e20646964206e60008201527f6f74207375636365656400000000000000000000000000000000000000000000602082015250565b6000612e94602a83612311565b9150612e9f82612e38565b604082019050919050565b60006020820190508181036000830152612ec381612e87565b9050919050565b7f416464726573733a20696e73756666696369656e742062616c616e636520666f60008201527f722063616c6c0000000000000000000000000000000000000000000000000000602082015250565b6000612f26602683612311565b9150612f3182612eca565b604082019050919050565b60006020820190508181036000830152612f5581612f19565b9050919050565b7f416464726573733a2063616c6c20746f206e6f6e2d636f6e7472616374000000600082015250565b6000612f92601d83612311565b9150612f9d82612f5c565b602082019050919050565b60006020820190508181036000830152612fc181612f85565b9050919050565b600081519050919050565b600081905092915050565b60005b83811015612ffc578082015181840152602081019050612fe1565b60008484015250505050565b600061301382612fc8565b61301d8185612fd3565b935061302d818560208601612fde565b80840191505092915050565b60006130458284613008565b915081905092915050565b600081519050919050565b600061306682613050565b6130708185612311565b9350613080818560208601612fde565b61308981611f3c565b840191505092915050565b600060208201905081810360008301526130ae818461305b565b90509291505056fea26469706673582212205a4a2d1d91dcc082662774c01cce0d4c0810c68675222f42c48c7a0966aaf1d264736f6c63430008130033",
  "linkReferences": {},
  "deployedLinkReferences": {}
}